{
    "abi": [
        {
            "type": "constructor",
            "inputs": [
                {
                    "name": "_fantasyPlayerNFT",
                    "type": "address",
                    "internalType": "address"
                }
            ],
            "stateMutability": "nonpayable"
        },
        {
            "type": "fallback",
            "stateMutability": "payable"
        },
        {
            "type": "receive",
            "stateMutability": "payable"
        },
        {
            "type": "function",
            "name": "UsuariosInscritos",
            "inputs": [
                {
                    "name": "",
                    "type": "address",
                    "internalType": "address"
                }
            ],
            "outputs": [
                {
                    "name": "",
                    "type": "bool",
                    "internalType": "bool"
                }
            ],
            "stateMutability": "view"
        },
        {
            "type": "function",
            "name": "actualizarEstadisticas",
            "inputs": [
                {
                    "name": "_tokenId",
                    "type": "uint256",
                    "internalType": "uint256"
                },
                {
                    "name": "_goles",
                    "type": "uint256",
                    "internalType": "uint256"
                },
                {
                    "name": "_asistencias",
                    "type": "uint256",
                    "internalType": "uint256"
                },
                {
                    "name": "_paradas",
                    "type": "uint256",
                    "internalType": "uint256"
                },
                {
                    "name": "_penaltisParados",
                    "type": "uint256",
                    "internalType": "uint256"
                },
                {
                    "name": "_despejes",
                    "type": "uint256",
                    "internalType": "uint256"
                },
                {
                    "name": "_minutosJugados",
                    "type": "uint256",
                    "internalType": "uint256"
                },
                {
                    "name": "_porteriaCero",
                    "type": "bool",
                    "internalType": "bool"
                },
                {
                    "name": "_tarjetasAmarillas",
                    "type": "uint256",
                    "internalType": "uint256"
                },
                {
                    "name": "_tarjetasRojas",
                    "type": "uint256",
                    "internalType": "uint256"
                },
                {
                    "name": "_ganoPartido",
                    "type": "bool",
                    "internalType": "bool"
                }
            ],
            "outputs": [],
            "stateMutability": "nonpayable"
        },
        {
            "type": "function",
            "name": "actualizarPuntuacionesDeTodos",
            "inputs": [],
            "outputs": [],
            "stateMutability": "nonpayable"
        },
        {
            "type": "function",
            "name": "calcularPuntuacionEquipo",
            "inputs": [
                {
                    "name": "_jugador",
                    "type": "address",
                    "internalType": "address"
                }
            ],
            "outputs": [
                {
                    "name": "total",
                    "type": "uint256",
                    "internalType": "uint256"
                }
            ],
            "stateMutability": "view"
        },
        {
            "type": "function",
            "name": "cargarJugadoresDisponibles",
            "inputs": [],
            "outputs": [],
            "stateMutability": "nonpayable"
        },
        {
            "type": "function",
            "name": "distribuirPremio",
            "inputs": [],
            "outputs": [],
            "stateMutability": "nonpayable"
        },
        {
            "type": "function",
            "name": "equipos",
            "inputs": [
                {
                    "name": "",
                    "type": "address",
                    "internalType": "address"
                }
            ],
            "outputs": [
                {
                    "name": "owner",
                    "type": "address",
                    "internalType": "address payable"
                },
                {
                    "name": "nombre",
                    "type": "string",
                    "internalType": "string"
                },
                {
                    "name": "puntuacionEquipo",
                    "type": "uint256",
                    "internalType": "uint256"
                },
                {
                    "name": "seleccionado",
                    "type": "bool",
                    "internalType": "bool"
                }
            ],
            "stateMutability": "view"
        },
        {
            "type": "function",
            "name": "fantasyPlayerNFT",
            "inputs": [],
            "outputs": [
                {
                    "name": "",
                    "type": "address",
                    "internalType": "contract FantasyPlayerNFT"
                }
            ],
            "stateMutability": "view"
        },
        {
            "type": "function",
            "name": "finalizarJornada",
            "inputs": [],
            "outputs": [],
            "stateMutability": "nonpayable"
        },
        {
            "type": "function",
            "name": "gameStatus",
            "inputs": [],
            "outputs": [
                {
                    "name": "",
                    "type": "uint8",
                    "internalType": "enum FantasyLeague.Status"
                }
            ],
            "stateMutability": "view"
        },
        {
            "type": "function",
            "name": "getEquipo",
            "inputs": [],
            "outputs": [
                {
                    "name": "",
                    "type": "tuple",
                    "internalType": "struct FantasyLeague.Equipo",
                    "components": [
                        {
                            "name": "owner",
                            "type": "address",
                            "internalType": "address payable"
                        },
                        {
                            "name": "nombre",
                            "type": "string",
                            "internalType": "string"
                        },
                        {
                            "name": "jugadores",
                            "type": "uint256[5]",
                            "internalType": "uint256[5]"
                        },
                        {
                            "name": "puntuacionEquipo",
                            "type": "uint256",
                            "internalType": "uint256"
                        },
                        {
                            "name": "seleccionado",
                            "type": "bool",
                            "internalType": "bool"
                        }
                    ]
                }
            ],
            "stateMutability": "view"
        },
        {
            "type": "function",
            "name": "getEquiposInscritos",
            "inputs": [],
            "outputs": [
                {
                    "name": "",
                    "type": "tuple[]",
                    "internalType": "struct FantasyLeague.Equipo[]",
                    "components": [
                        {
                            "name": "owner",
                            "type": "address",
                            "internalType": "address payable"
                        },
                        {
                            "name": "nombre",
                            "type": "string",
                            "internalType": "string"
                        },
                        {
                            "name": "jugadores",
                            "type": "uint256[5]",
                            "internalType": "uint256[5]"
                        },
                        {
                            "name": "puntuacionEquipo",
                            "type": "uint256",
                            "internalType": "uint256"
                        },
                        {
                            "name": "seleccionado",
                            "type": "bool",
                            "internalType": "bool"
                        }
                    ]
                }
            ],
            "stateMutability": "view"
        },
        {
            "type": "function",
            "name": "getEstadoActual",
            "inputs": [],
            "outputs": [
                {
                    "name": "",
                    "type": "uint8",
                    "internalType": "enum FantasyLeague.Status"
                }
            ],
            "stateMutability": "view"
        },
        {
            "type": "function",
            "name": "iniciarJornada",
            "inputs": [],
            "outputs": [],
            "stateMutability": "nonpayable"
        },
        {
            "type": "function",
            "name": "jugadorElegido",
            "inputs": [
                {
                    "name": "",
                    "type": "uint256",
                    "internalType": "uint256"
                }
            ],
            "outputs": [
                {
                    "name": "",
                    "type": "bool",
                    "internalType": "bool"
                }
            ],
            "stateMutability": "view"
        },
        {
            "type": "function",
            "name": "jugadores",
            "inputs": [
                {
                    "name": "",
                    "type": "uint256",
                    "internalType": "uint256"
                }
            ],
            "outputs": [
                {
                    "name": "id",
                    "type": "uint256",
                    "internalType": "uint256"
                },
                {
                    "name": "nombre",
                    "type": "string",
                    "internalType": "string"
                },
                {
                    "name": "equipo",
                    "type": "string",
                    "internalType": "string"
                },
                {
                    "name": "puntuacion",
                    "type": "uint256",
                    "internalType": "uint256"
                },
                {
                    "name": "goles",
                    "type": "uint256",
                    "internalType": "uint256"
                },
                {
                    "name": "asistencias",
                    "type": "uint256",
                    "internalType": "uint256"
                },
                {
                    "name": "paradas",
                    "type": "uint256",
                    "internalType": "uint256"
                },
                {
                    "name": "penaltisParados",
                    "type": "uint256",
                    "internalType": "uint256"
                },
                {
                    "name": "despejes",
                    "type": "uint256",
                    "internalType": "uint256"
                },
                {
                    "name": "minutosJugados",
                    "type": "uint256",
                    "internalType": "uint256"
                },
                {
                    "name": "porteriaCero",
                    "type": "bool",
                    "internalType": "bool"
                },
                {
                    "name": "tarjetasAmarillas",
                    "type": "uint256",
                    "internalType": "uint256"
                },
                {
                    "name": "tarjetasRojas",
                    "type": "uint256",
                    "internalType": "uint256"
                },
                {
                    "name": "ganoPartido",
                    "type": "bool",
                    "internalType": "bool"
                }
            ],
            "stateMutability": "view"
        },
        {
            "type": "function",
            "name": "owner",
            "inputs": [],
            "outputs": [
                {
                    "name": "",
                    "type": "address",
                    "internalType": "address"
                }
            ],
            "stateMutability": "view"
        },
        {
            "type": "function",
            "name": "pagarEntrada",
            "inputs": [],
            "outputs": [],
            "stateMutability": "payable"
        },
        {
            "type": "function",
            "name": "renounceOwnership",
            "inputs": [],
            "outputs": [],
            "stateMutability": "nonpayable"
        },
        {
            "type": "function",
            "name": "resetJornada",
            "inputs": [],
            "outputs": [],
            "stateMutability": "nonpayable"
        },
        {
            "type": "function",
            "name": "seleccionarJugadores",
            "inputs": [
                {
                    "name": "_nombreEquipo",
                    "type": "string",
                    "internalType": "string"
                },
                {
                    "name": "_jugadores",
                    "type": "uint256[5]",
                    "internalType": "uint256[5]"
                }
            ],
            "outputs": [],
            "stateMutability": "nonpayable"
        },
        {
            "type": "function",
            "name": "transferOwnership",
            "inputs": [
                {
                    "name": "newOwner",
                    "type": "address",
                    "internalType": "address"
                }
            ],
            "outputs": [],
            "stateMutability": "nonpayable"
        },
        {
            "type": "function",
            "name": "withdraw",
            "inputs": [],
            "outputs": [],
            "stateMutability": "nonpayable"
        },
        {
            "type": "event",
            "name": "EntradaPagada",
            "inputs": [
                {
                    "name": "usuario",
                    "type": "address",
                    "indexed": true,
                    "internalType": "address"
                }
            ],
            "anonymous": false
        },
        {
            "type": "event",
            "name": "EstadisticasActualizadas",
            "inputs": [
                {
                    "name": "jugadorId",
                    "type": "uint256",
                    "indexed": true,
                    "internalType": "uint256"
                },
                {
                    "name": "nuevaPuntuacion",
                    "type": "uint256",
                    "indexed": false,
                    "internalType": "uint256"
                }
            ],
            "anonymous": false
        },
        {
            "type": "event",
            "name": "EstadoJornadaActualizado",
            "inputs": [
                {
                    "name": "nuevoEstado",
                    "type": "uint8",
                    "indexed": false,
                    "internalType": "enum FantasyLeague.Status"
                }
            ],
            "anonymous": false
        },
        {
            "type": "event",
            "name": "JornadaReiniciada",
            "inputs": [],
            "anonymous": false
        },
        {
            "type": "event",
            "name": "JugadoresSeleccionados",
            "inputs": [
                {
                    "name": "usuario",
                    "type": "address",
                    "indexed": true,
                    "internalType": "address"
                },
                {
                    "name": "nombreEquipo",
                    "type": "string",
                    "indexed": false,
                    "internalType": "string"
                },
                {
                    "name": "jugadores",
                    "type": "uint256[5]",
                    "indexed": false,
                    "internalType": "uint256[5]"
                }
            ],
            "anonymous": false
        },
        {
            "type": "event",
            "name": "OwnershipTransferred",
            "inputs": [
                {
                    "name": "previousOwner",
                    "type": "address",
                    "indexed": true,
                    "internalType": "address"
                },
                {
                    "name": "newOwner",
                    "type": "address",
                    "indexed": true,
                    "internalType": "address"
                }
            ],
            "anonymous": false
        },
        {
            "type": "event",
            "name": "PremioDistribuido",
            "inputs": [
                {
                    "name": "ganador",
                    "type": "address",
                    "indexed": true,
                    "internalType": "address"
                },
                {
                    "name": "cantidad",
                    "type": "uint256",
                    "indexed": false,
                    "internalType": "uint256"
                }
            ],
            "anonymous": false
        },
        {
            "type": "event",
            "name": "RetiroDeFondos",
            "inputs": [
                {
                    "name": "admin",
                    "type": "address",
                    "indexed": true,
                    "internalType": "address"
                },
                {
                    "name": "cantidad",
                    "type": "uint256",
                    "indexed": false,
                    "internalType": "uint256"
                }
            ],
            "anonymous": false
        }
    ],
    "bytecode": {
        "object": "0x60803460b957601f61233f38819003918201601f19168301916001600160401b0383118484101760bd5780849260209460405283398101031260b957516001600160a01b0381169081900360b9575f8054336001600160a01b0319821681178355604051939290916001600160a01b0316907f8be0079c531659141344cd1fd0a4f28419497f9722a3daafe3b4186f6b6457e09080a360018055600280546001600160a81b03191691909117905561226d90816100d28239f35b5f80fd5b634e487b7160e01b5f52604160045260245ffdfe60806040526004361015610096575b36156100515760405162461bcd60e51b815260206004820152601560248201527446756e63696f6e206e6f207265636f6e6f6369646160581b6044820152606490fd5b60405162461bcd60e51b815260206004820152601c60248201527f4e6f207365206163657074616e207061676f73206469726563746f73000000006044820152606490fd5b5f3560e01c80630acaeff014611a90578063141998dd1461198e578063145f4825146119665780631f05d184146108ee5780632726021d146117ba5780632c59d0ce146117415780633ccfd60b1461166f5780634068dbf91461115e578063446da54f1461112757806348f65eaa14610bf15780634aead46c14610af55780634c7ef28714610a735780634ceebd561461096d578063715018a614610916578063722fed7e146108ee5780637e68e3ec146108695780637f1f73b4146107945780638da5cb5b1461076d5780639fc3c2741461072c578063aa0fa25a146105a6578063c8532fd014610294578063d4225f6a146102655763f2fde38b0361000e5734610261576020366003190112610261576004356001600160a01b03811690819003610261576101c56121d3565b801561020d575f80546001600160a01b03198116831782556001600160a01b0316907f8be0079c531659141344cd1fd0a4f28419497f9722a3daafe3b4186f6b6457e09080a3005b60405162461bcd60e51b815260206004820152602660248201527f4f776e61626c653a206e6577206f776e657220697320746865207a65726f206160448201526564647265737360d01b6064820152608490fd5b5f80fd5b34610261576020366003190112610261576004355f526007602052602060ff60405f2054166040519015158152f35b34610261576101603660031901126102615760043560e43580151581036102615761014435908115158203610261576102cb6121d3565b60035483101561056d576102de83611c9b565b509060048201916024358355600581016044358155600682016064358155600783016084358155600884019060a4358255600985019260c4358455610333600a870197889060ff801983541691151516179055565b6101a0600b870195610104358755600c880197610124358955610366600d82019c8d9060ff801983541691151516179055565b60ff8060036040519361037885611b4d565b8054855261038860018201611ba8565b602086015261039960028201611ba8565b6040860152019c8d546060850152549360808401948552549560a08401968752549660c08401978852549760e0840198895254986101008401998a52549b61012084019c8d5254169861014083019915158a52549961016083019a8b52549c61018083019d8e525416151592839101525f91610564575b518060021b90808204600414901517156105155761042d91611f45565b90516003810290808204600314901517156105155761044b91611f45565b9051808004600114811517156105155761046491611f45565b90516005810290808204600514901517156105155761048291611f45565b9051808004600114811517156105155761049b91611f45565b9251601e81101561053b575b5051610529575b5180800460011481151715610515576104c69161222a565b915190600382029180830460031490151715610515576105096020927f7cb4cc1a9c2d927cc3b9495f0c44b489ede7ee414c909f31c7a134dd9cef72229461222a565b809155604051908152a2005b634e487b7160e01b5f52601160045260245ffd5b906003810180911161051557906104ae565b909261055491603c1161055b5760ff60025b1690611f45565b91866104a7565b60ff600161054d565b60039150610410565b60405162461bcd60e51b81526020600482015260116024820152704a756761646f72206e6f2065786973746560781b6044820152606490fd5b34610261575f366003190112610261576105be6121d3565b60ff60025460a01c1660038110156107185760026105dc9114611d46565b6105e461217d565b6004545f9081805b8281106106dc576001600160a01b03841680156106a6574760508102908082046050149015171561051557606490045f80808084865af161062b611e3b565b50156106625760207fe776dc24f32fabd24037693fabd96c5e90e03780a7765e52691083f3545c071791604051908152a260018055005b606460405162461bcd60e51b815260206004820152602060248201527f5472616e73666572656e63696120616c2067616e61646f722066616c6c6964616044820152fd5b60405162461bcd60e51b815260206004820152600e60248201526d2737903430bc9033b0b730b237b960911b6044820152606490fd5b6106e581611d91565b50546001600160a01b03166106f981611f52565b83811161070b575b50506001016105ec565b9094509150600185610701565b634e487b7160e01b5f52602160045260245ffd5b34610261576020366003190112610261576004356001600160a01b03811690819003610261575f526006602052602060ff60405f2054166040519015158152f35b34610261575f366003190112610261575f546040516001600160a01b039091168152602090f35b34610261575f366003190112610261575f60806040516107b381611b6a565b828152606060208201526040516107cb60a082611b86565b60a036823760408201528260608201520152335f52600560205260ff600860405f200154161561082457335f52600560205261082061080c60405f20612126565b604051918291602083526020830190611cf2565b0390f35b60405162461bcd60e51b815260206004820152601860248201527f4e6f20686173207265676973747261646f2065717569706f00000000000000006044820152606490fd5b34610261575f366003190112610261576108816121d3565b60ff60025460a01c1660038110156107185761089d9015611d46565b6002805460ff60a01b1916600160a01b17908190556040517f28fa21692e8f591d5f7e88e6b8a2cf4a052a94b230d0ebca0b10bc2cdf99438a9181906108e99060a01c60ff1682611c6c565b0390a1005b34610261575f3660031901126102615761082060ff60025460a01c1660405191829182611c6c565b34610261575f3660031901126102615761092e6121d3565b5f80546001600160a01b0319811682556001600160a01b03167f8be0079c531659141344cd1fd0a4f28419497f9722a3daafe3b4186f6b6457e08280a3005b34610261575f3660031901126102615760045467ffffffffffffffff8111610a5f57604051906109a360208260051b0183611b86565b80825260208201908160045f527f8a35acfbc15ff81a39ae7d344fd709f28e8600b4aa8c65c6b64bfe7fe36bd19b5f915b838310610a4157848660405191829160208301906020845251809152604083019060408160051b85010192915f905b828210610a1257505050500390f35b91936001919395506020610a318192603f198a82030186528851611cf2565b9601920192018594939192610a03565b60096020600192610a5185612126565b8152019201920191906109d4565b634e487b7160e01b5f52604160045260245ffd5b34610261575f36600319011261026157610a8b6121d3565b60ff60025460a01c166003811015610718576001610aa99114611d46565b6002805460ff60a01b1916600160a11b17908190556040517f28fa21692e8f591d5f7e88e6b8a2cf4a052a94b230d0ebca0b10bc2cdf99438a9181906108e99060a01c60ff1682611c6c565b346102615760203660031901126102615760043560035481101561026157610b1c90611c9b565b508054610b2b60018301611ba8565b91610b3860028201611ba8565b6003820154916004810154600582015460068301546007840154600885015490600986015492600a87015460ff1694600b88015496600c89015498600d015460ff16996040519d8e9d8e528d602081016101c090526101c001610b9a91611c48565b8d810360408f0152610bab91611c48565b9a60608d015260808c015260a08b015260c08a015260e0890152610100880152610120870152151561014086015261016085015261018084015215156101a08301520390f35b346102615760c03660031901126102615760043567ffffffffffffffff81116102615736602382011215610261578060040135610c2d81611c7f565b91610c3b6040519384611b86565b818352366024838301011161026157815f926024602093018386013783010152366043121561026157604051610c7260a082611b86565b803660c411610261576024905b60c48210611117575050335f52600660205260ff60405f205416156110d2576003545f5b60058110611017575050335f52600560205260ff600860405f20015416610fd257815115610f7b575f5b60058110610f52575060405191610ce383611b6a565b33808452602080850183815260408087018681525f60608901818152600160808b018181529783526005909652929020975188546001600160a01b0319166001600160a01b03919091161788559151805191938801919067ffffffffffffffff8211610a5f57610d5d82610d578554611b15565b85611ebd565b602090601f8311600114610eef57610d8c92915f9183610ee4575b50508160011b915f199060031b1c19161790565b90555b515f5b60058110610ecd5750506008610dc092869251600784015551151591019060ff801983541691151516179055565b335f52600560205260405f2090600454600160401b811015610a5f57806001610dec9201600455611d91565b929092610eba5782817f417d20f0001b71b9ff4b092fa5814177d9166dbd07613f725f4a556064c879c69403610e4a575b5050610e42610e376040519260c0845260c0840190611c48565b936020830190611ccb565b8033930390a2005b815481546001600160a01b0319166001600160a01b0391909116178155610eb39160089060ff908290610e83600180830190870161200f565b610e9360028201600287016120ef565b6007810154600786015501541691019060ff801983541691151516179055565b8380610e1d565b634e487b7160e01b5f525f60045260245ffd5b600190602083519301926002828a01015501610d92565b015190508a80610d78565b90601f19831691845f52815f20925f5b818110610f3a5750908460019594939210610f22575b505050811b019055610d8f565b01515f1960f88460031b161c19169055898080610f15565b92936020600181928786015181550195019301610eff565b80610f5f60019284611f34565b515f52600760205260405f208260ff1982541617905501610ccd565b60405162461bcd60e51b815260206004820152602960248201527f456c206e6f6d6272652064656c2065717569706f206e6f20707565646520657360448201526874617220766163696f60b81b6064820152608490fd5b60405162461bcd60e51b815260206004820152601e60248201527f59612073656c656363696f6e6173746520747573206a756761646f72657300006044820152606490fd5b816110228285611f34565b511015611094576110338184611f34565b515f52600760205260ff60405f20541661104f57600101610ca3565b60405162461bcd60e51b815260206004820152601760248201527f4a756761646f722079612073656c656363696f6e61646f0000000000000000006044820152606490fd5b60405162461bcd60e51b81526020600482015260166024820152754944206465206a756761646f7220696e76616c69646f60501b6044820152606490fd5b60405162461bcd60e51b815260206004820152601a60248201527f4e6f206861732070616761646f206c6120656e747261646121210000000000006044820152606490fd5b8135815260209182019101610c7f565b34610261576020366003190112610261576004356001600160a01b038116810361026157611156602091611f52565b604051908152f35b34610261575f366003190112610261576111766121d3565b6002546040516365507c9560e11b815290602090829060049082906001600160a01b03165afa908115611569575f9161163d575b506003545f60035580611574575b505f5b8181106111c457005b6002546040516312bab51b60e21b815260048101839052905f90829060249082906001600160a01b03165afa8015611569575f905f925f916114e1575b506040519161120f83611b4d565b825260208201928352604082019081525f60608301525f60808301525f60a08301525f60c08301525f60e08301525f6101008301525f6101208301525f6101408301525f6101608301525f6101808301525f6101a0830152600354600160401b811015610a5f578060016112869201600355611c9b565b939093610eba5782518455518051600185019167ffffffffffffffff8211610a5f576112b682610d578554611b15565b602090601f831160011461147e576112e492915f91836114735750508160011b915f199060031b1c19161790565b90555b5180519067ffffffffffffffff8211610a5f576113148261130b6002870154611b15565b60028701611ebd565b602090601f83116001146113fc576113eb93611350846001989795600d956101a0955f926113f15750508160011b915f199060031b1c19161790565b60028501555b606081015160038501556080810151600485015560a0810151600585015560c0810151600685015560e08101516007850155610100810151600885015561012081015160098501556113be6101408201511515600a86019060ff801983541691151516179055565b610160810151600b850155610180810151600c8501550151151591019060ff801983541691151516179055565b016111bb565b015190508b80610d78565b90600285015f52805f20915f5b601f198516811061145b575093600184600d946101a0946113eb98849b9a98601f19811610611443575b505050811b016002850155611356565b01515f1960f88460031b161c191690558a8080611433565b91926020600181928685015181550194019201611409565b015190508980610d78565b90601f19831691845f52815f20925f5b8181106114c957509084600195949392106114b1575b505050811b0190556112e7565b01515f1960f88460031b161c191690558880806114a4565b9293602060018192878601518155019501930161148e565b925050503d805f833e6114f48183611b86565b81016101c082820312610261578151602083015167ffffffffffffffff81116102615782611523918501611e6a565b9160408401519067ffffffffffffffff82116102615761154b6101a091611560938701611e6a565b946115596101408201611eb0565b5001611eb0565b50909185611201565b6040513d5f823e3d90fd5b80600e0290600e8204036105155760035f527fc2575a0e9e593c00f959f8c92f12db2869c3395a3b0502d05e2516446f71f85b017fc2575a0e9e593c00f959f8c92f12db2869c3395a3b0502d05e2516446f71f85b5b8181106115d757506111b8565b805f600e92556115e960018201611dc3565b6115f560028201611dc3565b5f60038201555f60048201555f60058201555f60068201555f60078201555f60088201555f60098201555f600a8201555f600b8201555f600c8201555f600d820155016115ca565b90506020813d602011611667575b8161165860209383611b86565b810103126102615751816111aa565b3d915061164b565b34610261575f366003190112610261576116876121d3565b61168f61217d565b4760148102908082046014149015171561051557606490045f8080808460018060a01b038254165af16116c0611e3b565b5015611704575f546040519182526001600160a01b0316907f96d869f70be503ccf6a49e2c274e6f1760b0cbd2c0a516e72a7f90e667a8f28c90602090a260018055005b60405162461bcd60e51b81526020600482015260156024820152745472616e73666572656e6369612066616c6c69646160581b6044820152606490fd5b34610261575f366003190112610261576117596121d3565b60ff60025460a01c1660038110156107185760026117779114611d46565b5f5b6004548110156117b8578061178f600192611d91565b50828060a01b039054166117a281611f52565b905f526005602052600760405f20015501611779565b005b34610261575f366003190112610261576117d26121d3565b60ff60025460a01c1660038110156107185760026117f09114611d46565b5f5b6004548110156118515780611808600192611d91565b50828060a01b039054165f52600560205261182560405f20611e11565b61182e81611d91565b50828060a01b039054165f52600660205260405f2060ff198154169055016117f2565b6004545f600455806118f1575b505f5b600354811015611888575f818152600760205260409020805460ff19169055600101611861565b6002805460ff60a01b191690556040517f28fa21692e8f591d5f7e88e6b8a2cf4a052a94b230d0ebca0b10bc2cdf99438a907fd590c98278372123dc9771a5f7f1340b9d85f549577c3ba1f6ed1b72b2387f795f80a1806108e960ff60025460a01c1682611c6c565b806009029060098204036105155760045f527f8a35acfbc15ff81a39ae7d344fd709f28e8600b4aa8c65c6b64bfe7fe36bd19b017f8a35acfbc15ff81a39ae7d344fd709f28e8600b4aa8c65c6b64bfe7fe36bd19b5b818110611954575061185e565b80611960600992611e11565b01611947565b34610261575f366003190112610261576002546040516001600160a01b039091168152602090f35b5f366003190112610261576119a161217d565b67016345785d8a00003403611a4b57335f52600660205260ff60405f205416611a0657335f52600660205260405f20600160ff19825416179055337fcb2130f1b7580df591ec8f98192e10493a06a608a9806eb9e4d676705ea456545f80a260018055005b60405162461bcd60e51b815260206004820152601f60248201527f596120657374617320696e73637269746f20656e206c61206a6f726e616461006044820152606490fd5b60405162461bcd60e51b815260206004820152601b60248201527f4c6120656e74726164612063756573746120302e3120657468657200000000006044820152606490fd5b34610261576020366003190112610261576004356001600160a01b03811690819003610261575f90815260056020526040902080546001600160a01b0316611ada60018301611ba8565b9160ff6008600783015492015416611b046040519485948552608060208601526080850190611c48565b916040840152151560608301520390f35b90600182811c92168015611b43575b6020831014611b2f57565b634e487b7160e01b5f52602260045260245ffd5b91607f1691611b24565b6101c0810190811067ffffffffffffffff821117610a5f57604052565b60a0810190811067ffffffffffffffff821117610a5f57604052565b90601f8019910116810190811067ffffffffffffffff821117610a5f57604052565b9060405191825f825492611bbb84611b15565b8084529360018116908115611c265750600114611be2575b50611be092500383611b86565b565b90505f9291925260205f20905f915b818310611c0a575050906020611be0928201015f611bd3565b6020919350806001915483858901015201910190918492611bf1565b905060209250611be094915060ff191682840152151560051b8201015f611bd3565b805180835260209291819084018484015e5f828201840152601f01601f1916010190565b9190602083019260038210156107185752565b67ffffffffffffffff8111610a5f57601f01601f191660200190565b600354811015611cb75760035f52600e60205f20910201905f90565b634e487b7160e01b5f52603260045260245ffd5b905f905b60058210611cdc57505050565b6020806001928551815201930191019091611ccf565b9060018060a01b0382511681526101006080611d1f60208501516101206020860152610120850190611c48565b93611d3260408201516040860190611ccb565b606081015160e08501520151151591015290565b15611d4d57565b606460405162461bcd60e51b815260206004820152602060248201527f45737461646f20696e76616c69646f2070617261206573746120616363696f6e6044820152fd5b600454811015611cb75760045f52600960205f20910201905f90565b818110611db8575050565b5f8155600101611dad565b611dcd8154611b15565b9081611dd7575050565b81601f5f9311600114611de8575055565b81835260208320611e0491601f0160051c810190600101611dad565b8082528160208120915555565b60085f91828155611e2460018201611dc3565b8260078201611e368160028501611dad565b550155565b3d15611e65573d90611e4c82611c7f565b91611e5a6040519384611b86565b82523d5f602084013e565b606090565b81601f8201121561026157805190611e8182611c7f565b92611e8f6040519485611b86565b8284526020838301011161026157815f9260208093018386015e8301015290565b5190811515820361026157565b9190601f8111611ecc57505050565b611be0925f5260205f20906020601f840160051c83019310611ef6575b601f0160051c0190611dad565b9091508190611ee9565b60405191905f835b60058210611f1e57505050611be060a083611b86565b6001602081928554815201930191019091611f08565b906005811015611cb75760051b0190565b9190820180921161051557565b6001600160a01b03165f8181526005602052604090206008015460ff1615611fca575f905f526005602052611f8c600260405f2001611f00565b5f905b60058210611f9c57505090565b9091611fc26001916003611fb9611fb38787611f34565b51611c9b565b50015490611f45565b920190611f8f565b60405162461bcd60e51b815260206004820152601a60248201527f456c206a756761646f72206e6f207469656e652065717569706f0000000000006044820152606490fd5b9190918281146120ea576120238354611b15565b67ffffffffffffffff8111610a5f57612046816120408454611b15565b84611ebd565b5f93601f82116001146120845761207592939482915f926120795750508160011b915f199060031b1c19161790565b9055565b015490505f80610d78565b601f198216905f5260205f2094835f5260205f20915f5b8181106120d2575095836001959697106120ba575b505050811b019055565b01545f1960f88460031b161c191690555f80806120b0565b9192600180602092868b01548155019401920161209b565b509050565b9080821461212257908154905f915b6005831061210c5750505050565b60018091940192835494818401550191926120fe565b5050565b9060405161213381611b6a565b608060ff6008839560018060a01b03815416855261215360018201611ba8565b602086015261216460028201611f00565b6040860152600781015460608601520154161515910152565b60026001541461218e576002600155565b60405162461bcd60e51b815260206004820152601f60248201527f5265656e7472616e637947756172643a207265656e7472616e742063616c6c006044820152606490fd5b5f546001600160a01b031633036121e657565b606460405162461bcd60e51b815260206004820152602060248201527f4f776e61626c653a2063616c6c6572206973206e6f7420746865206f776e65726044820152fd5b919082039182116105155756fea2646970667358221220f9614645bc2616e0e7e42c3562c94ffba5c6d87cc4662de27556b43d5f8a278264736f6c634300081c0033",
        "linkReferences": {}
    },
    "methodIdentifiers": {
        "UsuariosInscritos(address)": "9fc3c274",
        "actualizarEstadisticas(uint256,uint256,uint256,uint256,uint256,uint256,uint256,bool,uint256,uint256,bool)": "c8532fd0",
        "actualizarPuntuacionesDeTodos()": "2c59d0ce",
        "calcularPuntuacionEquipo(address)": "446da54f",
        "cargarJugadoresDisponibles()": "4068dbf9",
        "distribuirPremio()": "aa0fa25a",
        "equipos(address)": "0acaeff0",
        "fantasyPlayerNFT()": "145f4825",
        "finalizarJornada()": "4c7ef287",
        "gameStatus()": "722fed7e",
        "getEquipo()": "7f1f73b4",
        "getEquiposInscritos()": "4ceebd56",
        "getEstadoActual()": "1f05d184",
        "iniciarJornada()": "7e68e3ec",
        "jugadorElegido(uint256)": "d4225f6a",
        "jugadores(uint256)": "4aead46c",
        "owner()": "8da5cb5b",
        "pagarEntrada()": "141998dd",
        "renounceOwnership()": "715018a6",
        "resetJornada()": "2726021d",
        "seleccionarJugadores(string,uint256[5])": "48f65eaa",
        "transferOwnership(address)": "f2fde38b",
        "withdraw()": "3ccfd60b"
    },
    "id": 39
}