{
    "abi": [
        {
            "type": "constructor",
            "inputs": [
                {
                    "name": "_fantasyPlayerNFT",
                    "type": "address",
                    "internalType": "address"
                }
            ],
            "stateMutability": "nonpayable"
        },
        {
            "type": "fallback",
            "stateMutability": "payable"
        },
        {
            "type": "receive",
            "stateMutability": "payable"
        },
        {
            "type": "function",
            "name": "DEFAULT_ADMIN_ROLE",
            "inputs": [],
            "outputs": [
                {
                    "name": "",
                    "type": "bytes32",
                    "internalType": "bytes32"
                }
            ],
            "stateMutability": "view"
        },
        {
            "type": "function",
            "name": "ORACLE_ROLE",
            "inputs": [],
            "outputs": [
                {
                    "name": "",
                    "type": "bytes32",
                    "internalType": "bytes32"
                }
            ],
            "stateMutability": "view"
        },
        {
            "type": "function",
            "name": "UsuariosInscritos",
            "inputs": [
                {
                    "name": "",
                    "type": "address",
                    "internalType": "address"
                }
            ],
            "outputs": [
                {
                    "name": "",
                    "type": "bool",
                    "internalType": "bool"
                }
            ],
            "stateMutability": "view"
        },
        {
            "type": "function",
            "name": "actualizarEstadisticas",
            "inputs": [
                {
                    "name": "_tokenId",
                    "type": "uint256",
                    "internalType": "uint256"
                },
                {
                    "name": "_goles",
                    "type": "uint256",
                    "internalType": "uint256"
                },
                {
                    "name": "_asistencias",
                    "type": "uint256",
                    "internalType": "uint256"
                },
                {
                    "name": "_paradas",
                    "type": "uint256",
                    "internalType": "uint256"
                },
                {
                    "name": "_penaltisParados",
                    "type": "uint256",
                    "internalType": "uint256"
                },
                {
                    "name": "_despejes",
                    "type": "uint256",
                    "internalType": "uint256"
                },
                {
                    "name": "_minutosJugados",
                    "type": "uint256",
                    "internalType": "uint256"
                },
                {
                    "name": "_porteriaCero",
                    "type": "bool",
                    "internalType": "bool"
                },
                {
                    "name": "_tarjetasAmarillas",
                    "type": "uint256",
                    "internalType": "uint256"
                },
                {
                    "name": "_tarjetasRojas",
                    "type": "uint256",
                    "internalType": "uint256"
                },
                {
                    "name": "_ganoPartido",
                    "type": "bool",
                    "internalType": "bool"
                }
            ],
            "outputs": [],
            "stateMutability": "nonpayable"
        },
        {
            "type": "function",
            "name": "actualizarPuntuacionesDeTodos",
            "inputs": [],
            "outputs": [],
            "stateMutability": "nonpayable"
        },
        {
            "type": "function",
            "name": "calcularPuntuacionEquipo",
            "inputs": [
                {
                    "name": "_jugador",
                    "type": "address",
                    "internalType": "address"
                }
            ],
            "outputs": [
                {
                    "name": "total",
                    "type": "uint256",
                    "internalType": "uint256"
                }
            ],
            "stateMutability": "view"
        },
        {
            "type": "function",
            "name": "cargarJugadoresDisponibles",
            "inputs": [],
            "outputs": [],
            "stateMutability": "nonpayable"
        },
        {
            "type": "function",
            "name": "distribuirPremio",
            "inputs": [],
            "outputs": [],
            "stateMutability": "nonpayable"
        },
        {
            "type": "function",
            "name": "equipos",
            "inputs": [
                {
                    "name": "",
                    "type": "address",
                    "internalType": "address"
                }
            ],
            "outputs": [
                {
                    "name": "owner",
                    "type": "address",
                    "internalType": "address payable"
                },
                {
                    "name": "nombre",
                    "type": "string",
                    "internalType": "string"
                },
                {
                    "name": "puntuacionEquipo",
                    "type": "uint256",
                    "internalType": "uint256"
                },
                {
                    "name": "seleccionado",
                    "type": "bool",
                    "internalType": "bool"
                }
            ],
            "stateMutability": "view"
        },
        {
            "type": "function",
            "name": "fantasyPlayerNFT",
            "inputs": [],
            "outputs": [
                {
                    "name": "",
                    "type": "address",
                    "internalType": "contract FantasyPlayerNFT"
                }
            ],
            "stateMutability": "view"
        },
        {
            "type": "function",
            "name": "finalizarJornada",
            "inputs": [],
            "outputs": [],
            "stateMutability": "nonpayable"
        },
        {
            "type": "function",
            "name": "gameStatus",
            "inputs": [],
            "outputs": [
                {
                    "name": "",
                    "type": "uint8",
                    "internalType": "enum FantasyLeague.Status"
                }
            ],
            "stateMutability": "view"
        },
        {
            "type": "function",
            "name": "getEquipo",
            "inputs": [],
            "outputs": [
                {
                    "name": "",
                    "type": "tuple",
                    "internalType": "struct FantasyLeague.Equipo",
                    "components": [
                        {
                            "name": "owner",
                            "type": "address",
                            "internalType": "address payable"
                        },
                        {
                            "name": "nombre",
                            "type": "string",
                            "internalType": "string"
                        },
                        {
                            "name": "jugadores",
                            "type": "uint256[5]",
                            "internalType": "uint256[5]"
                        },
                        {
                            "name": "puntuacionEquipo",
                            "type": "uint256",
                            "internalType": "uint256"
                        },
                        {
                            "name": "seleccionado",
                            "type": "bool",
                            "internalType": "bool"
                        }
                    ]
                }
            ],
            "stateMutability": "view"
        },
        {
            "type": "function",
            "name": "getEquiposInscritos",
            "inputs": [],
            "outputs": [
                {
                    "name": "",
                    "type": "tuple[]",
                    "internalType": "struct FantasyLeague.Equipo[]",
                    "components": [
                        {
                            "name": "owner",
                            "type": "address",
                            "internalType": "address payable"
                        },
                        {
                            "name": "nombre",
                            "type": "string",
                            "internalType": "string"
                        },
                        {
                            "name": "jugadores",
                            "type": "uint256[5]",
                            "internalType": "uint256[5]"
                        },
                        {
                            "name": "puntuacionEquipo",
                            "type": "uint256",
                            "internalType": "uint256"
                        },
                        {
                            "name": "seleccionado",
                            "type": "bool",
                            "internalType": "bool"
                        }
                    ]
                }
            ],
            "stateMutability": "view"
        },
        {
            "type": "function",
            "name": "getEstadoActual",
            "inputs": [],
            "outputs": [
                {
                    "name": "",
                    "type": "uint8",
                    "internalType": "enum FantasyLeague.Status"
                }
            ],
            "stateMutability": "view"
        },
        {
            "type": "function",
            "name": "getRoleAdmin",
            "inputs": [
                {
                    "name": "role",
                    "type": "bytes32",
                    "internalType": "bytes32"
                }
            ],
            "outputs": [
                {
                    "name": "",
                    "type": "bytes32",
                    "internalType": "bytes32"
                }
            ],
            "stateMutability": "view"
        },
        {
            "type": "function",
            "name": "grantRole",
            "inputs": [
                {
                    "name": "role",
                    "type": "bytes32",
                    "internalType": "bytes32"
                },
                {
                    "name": "account",
                    "type": "address",
                    "internalType": "address"
                }
            ],
            "outputs": [],
            "stateMutability": "nonpayable"
        },
        {
            "type": "function",
            "name": "hasRole",
            "inputs": [
                {
                    "name": "role",
                    "type": "bytes32",
                    "internalType": "bytes32"
                },
                {
                    "name": "account",
                    "type": "address",
                    "internalType": "address"
                }
            ],
            "outputs": [
                {
                    "name": "",
                    "type": "bool",
                    "internalType": "bool"
                }
            ],
            "stateMutability": "view"
        },
        {
            "type": "function",
            "name": "iniciarJornada",
            "inputs": [],
            "outputs": [],
            "stateMutability": "nonpayable"
        },
        {
            "type": "function",
            "name": "jugadorElegido",
            "inputs": [
                {
                    "name": "",
                    "type": "uint256",
                    "internalType": "uint256"
                }
            ],
            "outputs": [
                {
                    "name": "",
                    "type": "bool",
                    "internalType": "bool"
                }
            ],
            "stateMutability": "view"
        },
        {
            "type": "function",
            "name": "jugadores",
            "inputs": [
                {
                    "name": "",
                    "type": "uint256",
                    "internalType": "uint256"
                }
            ],
            "outputs": [
                {
                    "name": "id",
                    "type": "uint256",
                    "internalType": "uint256"
                },
                {
                    "name": "nombre",
                    "type": "string",
                    "internalType": "string"
                },
                {
                    "name": "equipo",
                    "type": "string",
                    "internalType": "string"
                },
                {
                    "name": "puntuacion",
                    "type": "uint256",
                    "internalType": "uint256"
                },
                {
                    "name": "goles",
                    "type": "uint256",
                    "internalType": "uint256"
                },
                {
                    "name": "asistencias",
                    "type": "uint256",
                    "internalType": "uint256"
                },
                {
                    "name": "paradas",
                    "type": "uint256",
                    "internalType": "uint256"
                },
                {
                    "name": "penaltisParados",
                    "type": "uint256",
                    "internalType": "uint256"
                },
                {
                    "name": "despejes",
                    "type": "uint256",
                    "internalType": "uint256"
                },
                {
                    "name": "minutosJugados",
                    "type": "uint256",
                    "internalType": "uint256"
                },
                {
                    "name": "porteriaCero",
                    "type": "bool",
                    "internalType": "bool"
                },
                {
                    "name": "tarjetasAmarillas",
                    "type": "uint256",
                    "internalType": "uint256"
                },
                {
                    "name": "tarjetasRojas",
                    "type": "uint256",
                    "internalType": "uint256"
                },
                {
                    "name": "ganoPartido",
                    "type": "bool",
                    "internalType": "bool"
                }
            ],
            "stateMutability": "view"
        },
        {
            "type": "function",
            "name": "owner",
            "inputs": [],
            "outputs": [
                {
                    "name": "",
                    "type": "address",
                    "internalType": "address"
                }
            ],
            "stateMutability": "view"
        },
        {
            "type": "function",
            "name": "pagarEntrada",
            "inputs": [],
            "outputs": [],
            "stateMutability": "payable"
        },
        {
            "type": "function",
            "name": "renounceOwnership",
            "inputs": [],
            "outputs": [],
            "stateMutability": "nonpayable"
        },
        {
            "type": "function",
            "name": "renounceRole",
            "inputs": [
                {
                    "name": "role",
                    "type": "bytes32",
                    "internalType": "bytes32"
                },
                {
                    "name": "account",
                    "type": "address",
                    "internalType": "address"
                }
            ],
            "outputs": [],
            "stateMutability": "nonpayable"
        },
        {
            "type": "function",
            "name": "resetJornada",
            "inputs": [],
            "outputs": [],
            "stateMutability": "nonpayable"
        },
        {
            "type": "function",
            "name": "revokeRole",
            "inputs": [
                {
                    "name": "role",
                    "type": "bytes32",
                    "internalType": "bytes32"
                },
                {
                    "name": "account",
                    "type": "address",
                    "internalType": "address"
                }
            ],
            "outputs": [],
            "stateMutability": "nonpayable"
        },
        {
            "type": "function",
            "name": "seleccionarJugadores",
            "inputs": [
                {
                    "name": "_nombreEquipo",
                    "type": "string",
                    "internalType": "string"
                },
                {
                    "name": "_jugadores",
                    "type": "uint256[5]",
                    "internalType": "uint256[5]"
                }
            ],
            "outputs": [],
            "stateMutability": "nonpayable"
        },
        {
            "type": "function",
            "name": "setOracle",
            "inputs": [
                {
                    "name": "oracle",
                    "type": "address",
                    "internalType": "address"
                }
            ],
            "outputs": [],
            "stateMutability": "nonpayable"
        },
        {
            "type": "function",
            "name": "supportsInterface",
            "inputs": [
                {
                    "name": "interfaceId",
                    "type": "bytes4",
                    "internalType": "bytes4"
                }
            ],
            "outputs": [
                {
                    "name": "",
                    "type": "bool",
                    "internalType": "bool"
                }
            ],
            "stateMutability": "view"
        },
        {
            "type": "function",
            "name": "transferOwnership",
            "inputs": [
                {
                    "name": "newOwner",
                    "type": "address",
                    "internalType": "address"
                }
            ],
            "outputs": [],
            "stateMutability": "nonpayable"
        },
        {
            "type": "function",
            "name": "withdraw",
            "inputs": [],
            "outputs": [],
            "stateMutability": "nonpayable"
        },
        {
            "type": "event",
            "name": "EntradaPagada",
            "inputs": [
                {
                    "name": "usuario",
                    "type": "address",
                    "indexed": true,
                    "internalType": "address"
                }
            ],
            "anonymous": false
        },
        {
            "type": "event",
            "name": "EstadisticasActualizadas",
            "inputs": [
                {
                    "name": "jugadorId",
                    "type": "uint256",
                    "indexed": true,
                    "internalType": "uint256"
                },
                {
                    "name": "nuevaPuntuacion",
                    "type": "uint256",
                    "indexed": false,
                    "internalType": "uint256"
                }
            ],
            "anonymous": false
        },
        {
            "type": "event",
            "name": "EstadoJornadaActualizado",
            "inputs": [
                {
                    "name": "nuevoEstado",
                    "type": "uint8",
                    "indexed": false,
                    "internalType": "enum FantasyLeague.Status"
                }
            ],
            "anonymous": false
        },
        {
            "type": "event",
            "name": "JornadaReiniciada",
            "inputs": [],
            "anonymous": false
        },
        {
            "type": "event",
            "name": "JugadoresSeleccionados",
            "inputs": [
                {
                    "name": "usuario",
                    "type": "address",
                    "indexed": true,
                    "internalType": "address"
                },
                {
                    "name": "nombreEquipo",
                    "type": "string",
                    "indexed": false,
                    "internalType": "string"
                },
                {
                    "name": "jugadores",
                    "type": "uint256[5]",
                    "indexed": false,
                    "internalType": "uint256[5]"
                }
            ],
            "anonymous": false
        },
        {
            "type": "event",
            "name": "OwnershipTransferred",
            "inputs": [
                {
                    "name": "previousOwner",
                    "type": "address",
                    "indexed": true,
                    "internalType": "address"
                },
                {
                    "name": "newOwner",
                    "type": "address",
                    "indexed": true,
                    "internalType": "address"
                }
            ],
            "anonymous": false
        },
        {
            "type": "event",
            "name": "PremioDistribuido",
            "inputs": [
                {
                    "name": "ganador",
                    "type": "address",
                    "indexed": true,
                    "internalType": "address"
                },
                {
                    "name": "cantidad",
                    "type": "uint256",
                    "indexed": false,
                    "internalType": "uint256"
                }
            ],
            "anonymous": false
        },
        {
            "type": "event",
            "name": "RetiroDeFondos",
            "inputs": [
                {
                    "name": "admin",
                    "type": "address",
                    "indexed": true,
                    "internalType": "address"
                },
                {
                    "name": "cantidad",
                    "type": "uint256",
                    "indexed": false,
                    "internalType": "uint256"
                }
            ],
            "anonymous": false
        },
        {
            "type": "event",
            "name": "RoleAdminChanged",
            "inputs": [
                {
                    "name": "role",
                    "type": "bytes32",
                    "indexed": true,
                    "internalType": "bytes32"
                },
                {
                    "name": "previousAdminRole",
                    "type": "bytes32",
                    "indexed": true,
                    "internalType": "bytes32"
                },
                {
                    "name": "newAdminRole",
                    "type": "bytes32",
                    "indexed": true,
                    "internalType": "bytes32"
                }
            ],
            "anonymous": false
        },
        {
            "type": "event",
            "name": "RoleGranted",
            "inputs": [
                {
                    "name": "role",
                    "type": "bytes32",
                    "indexed": true,
                    "internalType": "bytes32"
                },
                {
                    "name": "account",
                    "type": "address",
                    "indexed": true,
                    "internalType": "address"
                },
                {
                    "name": "sender",
                    "type": "address",
                    "indexed": true,
                    "internalType": "address"
                }
            ],
            "anonymous": false
        },
        {
            "type": "event",
            "name": "RoleRevoked",
            "inputs": [
                {
                    "name": "role",
                    "type": "bytes32",
                    "indexed": true,
                    "internalType": "bytes32"
                },
                {
                    "name": "account",
                    "type": "address",
                    "indexed": true,
                    "internalType": "address"
                },
                {
                    "name": "sender",
                    "type": "address",
                    "indexed": true,
                    "internalType": "address"
                }
            ],
            "anonymous": false
        }
    ],
    "bytecode": {
        "object": "0x60803461013157601f612c3338819003918201601f19168301916001600160401b038311848410176101355780849260209460405283398101031261013157516001600160a01b03811690819003610131575f8054336001600160a01b0319821681178355916001600160a01b03909116907f8be0079c531659141344cd1fd0a4f28419497f9722a3daafe3b4186f6b6457e09080a36001600255600380546001600160a81b031916919091179055335f9081525f516020612c135f395f51905f52602052604090205460ff16156100e1575b604051612ac9908161014a8239f35b335f8181525f516020612c135f395f51905f5260205260408120805460ff1916600117905581907f2f8788117e7eff1d82e926ec794901d17c78024a50270940304540a733656f0d8180a46100d2565b5f80fd5b634e487b7160e01b5f52604160045260245ffdfe6080806040526004361015610098575b5036156100535760405162461bcd60e51b815260206004820152601560248201527446756e63696f6e206e6f207265636f6e6f6369646160581b6044820152606490fd5b60405162461bcd60e51b815260206004820152601c60248201527f4e6f207365206163657074616e207061676f73206469726563746f73000000006044820152606490fd5b5f3560e01c90816301ffc9a71461204e5750806307e2cea5146120145780630acaeff014611f93578063141998dd14611e90578063145f482514611e685780631f05d18414610bec578063248a9ca314611e3d5780632726021d14611c915780632c59d0ce14611c1a5780632f2ff15d14611b6157806336568abe14611acf5780633ccfd60b14611a115780634068dbf91461145f578063446da54f1461143457806348f65eaa14610eee5780634aead46c14610df25780634c7ef28714610d705780634ceebd5614610c6b578063715018a614610c14578063722fed7e14610bec5780637adbf97314610aff5780637e68e3ec14610a7a5780637f1f73b4146109a55780638da5cb5b1461097e57806391d14854146109355780639fc3c274146108f8578063a217fddf146108de578063aa0fa25a14610757578063c8532fd014610342578063d4225f6a14610313578063d547741f146102ce5763f2fde38b14610204575f61000f565b346102ca5760203660031901126102ca5761021d6120a1565b610225612896565b6001600160a01b03168015610276575f80546001600160a01b03198116831782556001600160a01b0316907f8be0079c531659141344cd1fd0a4f28419497f9722a3daafe3b4186f6b6457e09080a3005b60405162461bcd60e51b815260206004820152602660248201527f4f776e61626c653a206e6577206f776e657220697320746865207a65726f206160448201526564647265737360d01b6064820152608490fd5b5f80fd5b346102ca5760403660031901126102ca576103116004356102ed6120b7565b9061030c610307825f526001602052600160405f20015490565b6127d1565b612815565b005b346102ca5760203660031901126102ca576004355f526008602052602060ff60405f2054166040519015158152f35b346102ca576101603660031901126102ca5760043560e43580151581036102ca57610144359081151582036102ca57335f9081527ff7c11a6d0ec535894a90c88b42cba2ccb348cb15b5e3ad22a710d1d4ac632819602052604090205460ff161561068257600454831015610649576103ba8361224f565b509060048201916024358355600581016044358155600682016064358155600783016084358155600884019060a4358255600985019260c435845561040f600a870197889060ff801983541691151516179055565b6101a0600b870195610104358755600c880197610124358955610442600d82019c8d9060ff801983541691151516179055565b60ff8060036040519361045485612105565b805485526104646001820161215d565b60208601526104756002820161215d565b6040860152019c8d546060850152549360808401948552549560a08401968752549660c08401978852549760e0840198895254986101008401998a52549b61012084019c8d5254169861014083019915158a52549961016083019a8b52549c61018083019d8e525416151592839101525f91610640575b518060021b90808204600414901517156105f157610509916124ee565b90516003810290808204600314901517156105f157610527916124ee565b9051808004600114811517156105f157610540916124ee565b90516005810290808204600514901517156105f15761055e916124ee565b9051808004600114811517156105f157610577916124ee565b9251601e811015610617575b5051610605575b51808004600114811517156105f1576105a2916128ed565b9151906003820291808304600314901517156105f1576105e56020927f7cb4cc1a9c2d927cc3b9495f0c44b489ede7ee414c909f31c7a134dd9cef7222946128ed565b809155604051908152a2005b634e487b7160e01b5f52601160045260245ffd5b90600381018091116105f1579061058a565b909261063091603c116106375760ff60025b16906124ee565b9186610583565b60ff6001610629565b600391506104ec565b60405162461bcd60e51b81526020600482015260116024820152704a756761646f72206e6f2065786973746560781b6044820152606490fd5b610753602061073360116106953361290b565b6037846106c17f68e79a7bf1e0bc45d0a330c573bc367f9cf464fd326078812f301165fbda4ef16129f1565b6040519687947f416363657373436f6e74726f6c3a206163636f756e7420000000000000000000828701528051918291018587015e8401907001034b99036b4b9b9b4b733903937b6329607d1b84830152805192839101604883015e01015f838201520301601f19810183528261213c565b60405162461bcd60e51b81526020600482015291829160248301906121fd565b0390fd5b346102ca575f3660031901126102ca5761076f61277a565b60ff60035460a01c1660038110156108ca57600261078d91146122ef565b610795612726565b6005545f9081805b82811061088e576001600160a01b038416801561085857476050810290808204605014901517156105f157606490045f80808084865af16107dc6123e4565b50156108145760207fe776dc24f32fabd24037693fabd96c5e90e03780a7765e52691083f3545c071791604051908152a26001600255005b606460405162461bcd60e51b815260206004820152602060248201527f5472616e73666572656e63696120616c2067616e61646f722066616c6c6964616044820152fd5b60405162461bcd60e51b815260206004820152600e60248201526d2737903430bc9033b0b730b237b960911b6044820152606490fd5b6108978161233a565b50546001600160a01b03166108ab816124fb565b8381116108bd575b505060010161079d565b90945091506001856108b3565b634e487b7160e01b5f52602160045260245ffd5b346102ca575f3660031901126102ca5760206040515f8152f35b346102ca5760203660031901126102ca576001600160a01b036109196120a1565b165f526007602052602060ff60405f2054166040519015158152f35b346102ca5760403660031901126102ca5761094e6120b7565b6004355f52600160205260405f209060018060a01b03165f52602052602060ff60405f2054166040519015158152f35b346102ca575f3660031901126102ca575f546040516001600160a01b039091168152602090f35b346102ca575f3660031901126102ca575f60806040516109c481612121565b828152606060208201526040516109dc60a08261213c565b60a036823760408201528260608201520152335f52600660205260ff600860405f2001541615610a3557335f526006602052610a31610a1d60405f206126cf565b60405191829160208352602083019061227f565b0390f35b60405162461bcd60e51b815260206004820152601860248201527f4e6f20686173207265676973747261646f2065717569706f00000000000000006044820152606490fd5b346102ca575f3660031901126102ca57610a9261277a565b60ff60035460a01c1660038110156108ca57610aae90156122ef565b6003805460ff60a01b1916600160a01b17908190556040517f28fa21692e8f591d5f7e88e6b8a2cf4a052a94b230d0ebca0b10bc2cdf99438a918190610afa9060a01c60ff1682612221565b0390a1005b346102ca5760203660031901126102ca57610b186120a1565b610b2061277a565b6001600160a01b0381165f9081527ff7c11a6d0ec535894a90c88b42cba2ccb348cb15b5e3ad22a710d1d4ac632819602052604090205460ff1615610b6157005b6001600160a01b03165f8181527ff7c11a6d0ec535894a90c88b42cba2ccb348cb15b5e3ad22a710d1d4ac63281960205260408120805460ff191660011790553391907f68e79a7bf1e0bc45d0a330c573bc367f9cf464fd326078812f301165fbda4ef1907f2f8788117e7eff1d82e926ec794901d17c78024a50270940304540a733656f0d9080a4005b346102ca575f3660031901126102ca57610a3160ff60035460a01c1660405191829182612221565b346102ca575f3660031901126102ca57610c2c612896565b5f80546001600160a01b0319811682556001600160a01b03167f8be0079c531659141344cd1fd0a4f28419497f9722a3daafe3b4186f6b6457e08280a3005b346102ca575f3660031901126102ca576005546001600160401b038111610d5c5760405190610ca060208260051b018361213c565b80825260208201908160055f527f036b6384b5eca791c62761152d0c79bb0604c104a5fb6f4eb0703f3154bb3db05f915b838310610d3e57848660405191829160208301906020845251809152604083019060408160051b85010192915f905b828210610d0f57505050500390f35b91936001919395506020610d2e8192603f198a8203018652885161227f565b9601920192018594939192610d00565b60096020600192610d4e856126cf565b815201920192019190610cd1565b634e487b7160e01b5f52604160045260245ffd5b346102ca575f3660031901126102ca57610d8861277a565b60ff60035460a01c1660038110156108ca576001610da691146122ef565b6003805460ff60a01b1916600160a11b17908190556040517f28fa21692e8f591d5f7e88e6b8a2cf4a052a94b230d0ebca0b10bc2cdf99438a918190610afa9060a01c60ff1682612221565b346102ca5760203660031901126102ca576004356004548110156102ca57610e199061224f565b508054610e286001830161215d565b91610e356002820161215d565b6003820154916004810154600582015460068301546007840154600885015490600986015492600a87015460ff1694600b88015496600c89015498600d015460ff16996040519d8e9d8e528d602081016101c090526101c001610e97916121fd565b8d810360408f0152610ea8916121fd565b9a60608d015260808c015260a08b015260c08a015260e0890152610100880152610120870152151561014086015261016085015261018084015215156101a08301520390f35b346102ca5760c03660031901126102ca576004356001600160401b0381116102ca57366023820112156102ca578060040135610f2981612234565b91610f37604051938461213c565b81835236602483830101116102ca57815f92602460209301838601378301015236604312156102ca57604051610f6e60a08261213c565b803660c4116102ca576024905b60c48210611424575050335f52600760205260ff60405f205416156113df576004545f5b60058110611324575050335f52600660205260ff600860405f200154166112df57815115611288575f5b6005811061125f575060405191610fdf83612121565b33808452602080850183815260408087018681525f60608901818152600160808b018181529783526006909652929020975188546001600160a01b0319166001600160a01b0391909116178855915180519193880191906001600160401b038211610d5c576110588261105285546120cd565b85612466565b602090601f83116001146111fc5761108792915f91836111f1575b50508160011b915f199060031b1c19161790565b90555b515f5b600581106111da57505060086110bb92869251600784015551151591019060ff801983541691151516179055565b335f52600660205260405f20600554600160401b811015610d5c578060016110e6920160055561233a565b6111c757818103611157575b50506111096040519160c0835260c08301906121fd565b915f602083015b6005821061114157337f417d20f0001b71b9ff4b092fa5814177d9166dbd07613f725f4a556064c879c685870386a2005b6020806001928551815201930191019091611110565b815481546001600160a01b0319166001600160a01b03919091161781556111c09160089060ff90829061119060018083019087016125b9565b6111a06002820160028701612698565b6007810154600786015501541691019060ff801983541691151516179055565b82806110f2565b634e487b7160e01b5f525f60045260245ffd5b600190602083519301926002828a0101550161108d565b015190508a80611073565b90601f19831691845f52815f20925f5b818110611247575090846001959493921061122f575b505050811b01905561108a565b01515f1960f88460031b161c19169055898080611222565b9293602060018192878601518155019501930161120c565b8061126c600192846124dd565b515f52600860205260405f208260ff1982541617905501610fc9565b60405162461bcd60e51b815260206004820152602960248201527f456c206e6f6d6272652064656c2065717569706f206e6f20707565646520657360448201526874617220766163696f60b81b6064820152608490fd5b60405162461bcd60e51b815260206004820152601e60248201527f59612073656c656363696f6e6173746520747573206a756761646f72657300006044820152606490fd5b8161132f82856124dd565b5110156113a15761134081846124dd565b515f52600860205260ff60405f20541661135c57600101610f9f565b60405162461bcd60e51b815260206004820152601760248201527f4a756761646f722079612073656c656363696f6e61646f0000000000000000006044820152606490fd5b60405162461bcd60e51b81526020600482015260166024820152754944206465206a756761646f7220696e76616c69646f60501b6044820152606490fd5b60405162461bcd60e51b815260206004820152601a60248201527f4e6f206861732070616761646f206c6120656e747261646121210000000000006044820152606490fd5b8135815260209182019101610f7b565b346102ca5760203660031901126102ca5760206114576114526120a1565b6124fb565b604051908152f35b346102ca575f3660031901126102ca5761147761277a565b6003546040516365507c9560e11b815290602090829060049082906001600160a01b03165afa90811561190b575f916119df575b506004545f60045580611916575b505f5b8181106114c557005b600354604051631cab5c9d60e31b815260048101839052905f90829060249082906001600160a01b03165afa90811561190b575f916117e9575b508051604060208301519201516040519161151983612105565b825260208201928352604082019081525f60608301525f60808301525f60a08301525f60c08301525f60e08301525f6101008301525f6101208301525f6101408301525f6101608301525f6101808301525f6101a0830152600454600160401b811015610d5c57806001611590920160045561224f565b9390936111c7578251845551805160018501916001600160401b038211610d5c576115bf8261105285546120cd565b602090601f8311600114611786576115ed92915f918361177b5750508160011b915f199060031b1c19161790565b90555b518051906001600160401b038211610d5c5761161c8261161360028701546120cd565b60028701612466565b602090601f8311600114611704576116f393611658846001989795600d956101a0955f926116f95750508160011b915f199060031b1c19161790565b60028501555b606081015160038501556080810151600485015560a0810151600585015560c0810151600685015560e08101516007850155610100810151600885015561012081015160098501556116c66101408201511515600a86019060ff801983541691151516179055565b610160810151600b850155610180810151600c8501550151151591019060ff801983541691151516179055565b016114bc565b015190508b80611073565b90600285015f52805f20915f5b601f1985168110611763575093600184600d946101a0946116f398849b9a98601f1981161061174b575b505050811b01600285015561165e565b01515f1960f88460031b161c191690558a808061173b565b91926020600181928685015181550194019201611711565b015190508980611073565b90601f19831691845f52815f20925f5b8181106117d157509084600195949392106117b9575b505050811b0190556115f0565b01515f1960f88460031b161c191690558880806117ac565b92936020600181928786015181550195019301611796565b90503d805f833e6117fa818361213c565b8101906020818303126102ca578051906001600160401b0382116102ca57016101c0818303126102ca576040519161183183612105565b8151835260208201516001600160401b0381116102ca5781611854918401612413565b60208401526040820151916001600160401b0383116102ca5761187f6101a0926118ff948301612413565b6040850152606081015160608501526080810151608085015260a081015160a085015260c081015160c085015260e081015160e08501526101008101516101008501526101208101516101208501526118db6101408201612459565b61014085015261016081015161016085015261018081015161018085015201612459565b6101a0820152836114ff565b6040513d5f823e3d90fd5b80600e0290600e8204036105f15760045f527f8a35acfbc15ff81a39ae7d344fd709f28e8600b4aa8c65c6b64bfe7fe36bd19b017f8a35acfbc15ff81a39ae7d344fd709f28e8600b4aa8c65c6b64bfe7fe36bd19b5b81811061197957506114b9565b805f600e925561198b6001820161236c565b6119976002820161236c565b5f60038201555f60048201555f60058201555f60068201555f60078201555f60088201555f60098201555f600a8201555f600b8201555f600c8201555f600d8201550161196c565b90506020813d602011611a09575b816119fa6020938361213c565b810103126102ca5751816114ab565b3d91506119ed565b346102ca575f3660031901126102ca57611a2961277a565b611a31612726565b476014810290808204601414901517156105f157606490045f80808084335af1611a596123e4565b5015611a92576040519081527f96d869f70be503ccf6a49e2c274e6f1760b0cbd2c0a516e72a7f90e667a8f28c60203392a26001600255005b60405162461bcd60e51b81526020600482015260156024820152745472616e73666572656e6369612066616c6c69646160581b6044820152606490fd5b346102ca5760403660031901126102ca57611ae86120b7565b336001600160a01b03821603611b045761031190600435612815565b60405162461bcd60e51b815260206004820152602f60248201527f416363657373436f6e74726f6c3a2063616e206f6e6c792072656e6f756e636560448201526e103937b632b9903337b91039b2b63360891b6064820152608490fd5b346102ca5760403660031901126102ca57600435611b7d6120b7565b90611b97610307825f526001602052600160405f20015490565b805f52600160205260405f2060018060a01b0383165f5260205260ff60405f20541615611bc057005b5f8181526001602081815260408084206001600160a01b0396909616808552959091528220805460ff19169091179055339291907f2f8788117e7eff1d82e926ec794901d17c78024a50270940304540a733656f0d9080a4005b346102ca575f3660031901126102ca57611c3261277a565b60ff60035460a01c1660038110156108ca576002611c5091146122ef565b5f5b6005548110156103115780611c6860019261233a565b50828060a01b03905416611c7b816124fb565b905f526006602052600760405f20015501611c52565b346102ca575f3660031901126102ca57611ca961277a565b60ff60035460a01c1660038110156108ca576002611cc791146122ef565b5f5b600554811015611d285780611cdf60019261233a565b50828060a01b039054165f526006602052611cfc60405f206123ba565b611d058161233a565b50828060a01b039054165f52600760205260405f2060ff19815416905501611cc9565b6005545f60055580611dc8575b505f5b600454811015611d5f575f818152600860205260409020805460ff19169055600101611d38565b6003805460ff60a01b191690556040517f28fa21692e8f591d5f7e88e6b8a2cf4a052a94b230d0ebca0b10bc2cdf99438a907fd590c98278372123dc9771a5f7f1340b9d85f549577c3ba1f6ed1b72b2387f795f80a180610afa60ff60035460a01c1682612221565b806009029060098204036105f15760055f527f036b6384b5eca791c62761152d0c79bb0604c104a5fb6f4eb0703f3154bb3db0017f036b6384b5eca791c62761152d0c79bb0604c104a5fb6f4eb0703f3154bb3db05b818110611e2b5750611d35565b80611e376009926123ba565b01611e1e565b346102ca5760203660031901126102ca5760206114576004355f526001602052600160405f20015490565b346102ca575f3660031901126102ca576003546040516001600160a01b039091168152602090f35b5f3660031901126102ca57611ea3612726565b67016345785d8a00003403611f4e57335f52600760205260ff60405f205416611f0957335f52600760205260405f20600160ff19825416179055337fcb2130f1b7580df591ec8f98192e10493a06a608a9806eb9e4d676705ea456545f80a26001600255005b60405162461bcd60e51b815260206004820152601f60248201527f596120657374617320696e73637269746f20656e206c61206a6f726e616461006044820152606490fd5b60405162461bcd60e51b815260206004820152601b60248201527f4c6120656e74726164612063756573746120302e3120657468657200000000006044820152606490fd5b346102ca5760203660031901126102ca576001600160a01b03611fb46120a1565b165f90815260066020526040902080546001600160a01b0316611fd96001830161215d565b9160ff600860078301549201541661200360405194859485526080602086015260808501906121fd565b916040840152151560608301520390f35b346102ca575f3660031901126102ca5760206040517f68e79a7bf1e0bc45d0a330c573bc367f9cf464fd326078812f301165fbda4ef18152f35b346102ca5760203660031901126102ca576004359063ffffffff60e01b82168092036102ca57602091637965db0b60e01b8114908115612090575b5015158152f35b6301ffc9a760e01b14905083612089565b600435906001600160a01b03821682036102ca57565b602435906001600160a01b03821682036102ca57565b90600182811c921680156120fb575b60208310146120e757565b634e487b7160e01b5f52602260045260245ffd5b91607f16916120dc565b6101c081019081106001600160401b03821117610d5c57604052565b60a081019081106001600160401b03821117610d5c57604052565b90601f801991011681019081106001600160401b03821117610d5c57604052565b9060405191825f825492612170846120cd565b80845293600181169081156121db5750600114612197575b506121959250038361213c565b565b90505f9291925260205f20905f915b8183106121bf575050906020612195928201015f612188565b60209193508060019154838589010152019101909184926121a6565b90506020925061219594915060ff191682840152151560051b8201015f612188565b805180835260209291819084018484015e5f828201840152601f01601f1916010190565b9190602083019260038210156108ca5752565b6001600160401b038111610d5c57601f01601f191660200190565b60045481101561226b5760045f52600e60205f20910201905f90565b634e487b7160e01b5f52603260045260245ffd5b9060018060a01b0382511681526122a7602083015161012060208401526101208301906121fd565b916040810151604083015f905b600582106122d957505050608081606061010093015160e08501520151151591015290565b60208060019285518152019301910190916122b4565b156122f657565b606460405162461bcd60e51b815260206004820152602060248201527f45737461646f20696e76616c69646f2070617261206573746120616363696f6e6044820152fd5b60055481101561226b5760055f52600960205f20910201905f90565b818110612361575050565b5f8155600101612356565b61237681546120cd565b9081612380575050565b81601f5f9311600114612391575055565b818352602083206123ad91601f0160051c810190600101612356565b8082528160208120915555565b60085f918281556123cd6001820161236c565b82600782016123df8160028501612356565b550155565b3d1561240e573d906123f582612234565b91612403604051938461213c565b82523d5f602084013e565b606090565b81601f820112156102ca5780519061242a82612234565b92612438604051948561213c565b828452602083830101116102ca57815f9260208093018386015e8301015290565b519081151582036102ca57565b9190601f811161247557505050565b612195925f5260205f20906020601f840160051c8301931061249f575b601f0160051c0190612356565b9091508190612492565b60405191905f835b600582106124c75750505061219560a08361213c565b60016020819285548152019301910190916124b1565b90600581101561226b5760051b0190565b919082018092116105f157565b6001600160a01b03165f818152600660205260408120600801549092919060ff1615612574575f526006602052612537600260405f20016124a9565b5f905b60058210612546575050565b909261256c600191600361256361255d88876124dd565b5161224f565b500154906124ee565b93019061253a565b60405162461bcd60e51b815260206004820152601a60248201527f456c206a756761646f72206e6f207469656e652065717569706f0000000000006044820152606490fd5b919091828114612693576125cd83546120cd565b6001600160401b038111610d5c576125ef816125e984546120cd565b84612466565b5f93601f821160011461262d5761261e92939482915f926126225750508160011b915f199060031b1c19161790565b9055565b015490505f80611073565b601f198216905f5260205f2094835f5260205f20915f5b81811061267b57509583600195969710612663575b505050811b019055565b01545f1960f88460031b161c191690555f8080612659565b9192600180602092868b015481550194019201612644565b509050565b908082146126cb57908154905f915b600583106126b55750505050565b60018091940192835494818401550191926126a7565b5050565b906040516126dc81612121565b608060ff6008839560018060a01b0381541685526126fc6001820161215d565b602086015261270d600282016124a9565b6040860152600781015460608601520154161515910152565b60028054146127355760028055565b60405162461bcd60e51b815260206004820152601f60248201527f5265656e7472616e637947756172643a207265656e7472616e742063616c6c006044820152606490fd5b335f9081527fa6eef7e35abe7026729641147f7915573c7e97b47efa546f5f6e3230263bcb49602052604090205460ff16156127b257565b610753602061073360116127c53361290b565b6037846106c15f6129f1565b5f81815260016020908152604080832033845290915290205460ff16156127f55750565b60206107336011610753936037846106c161280f3361290b565b936129f1565b805f52600160205260405f2060018060a01b0383165f5260205260ff60405f20541661283f575050565b5f8181526001602090815260408083206001600160a01b0395909516808452949091528120805460ff19169055339291907ff6391f5c32d9c69d2a47ea670b442974b53935d1edc7fd64eb21e047a839171b9080a4565b5f546001600160a01b031633036128a957565b606460405162461bcd60e51b815260206004820152602060248201527f4f776e61626c653a2063616c6c6572206973206e6f7420746865206f776e65726044820152fd5b919082039182116105f157565b90815181101561226b570160200190565b612915602a612234565b90612923604051928361213c565b602a8252612931602a612234565b6020830190601f190136823782511561226b576030905381516001101561226b576078602183015360295b600181116129b0575061296c5790565b606460405162461bcd60e51b815260206004820152602060248201527f537472696e67733a20686578206c656e67746820696e73756666696369656e746044820152fd5b90600f8116601081101561226b576f181899199a1a9b1b9c1cb0b131b232b360811b901a6129de83856128fa565b5360041c9080156105f1575f190161295c565b6129fb6042612234565b90612a09604051928361213c565b60428252612a176042612234565b6020830190601f190136823782511561226b576030905381516001101561226b576078602183015360415b60018111612a52575061296c5790565b90600f8116601081101561226b576f181899199a1a9b1b9c1cb0b131b232b360811b901a612a8083856128fa565b5360041c9080156105f1575f1901612a4256fea264697066735822122096300036766029e1f9503b0444f650f899f38c7585894fde5a30e689ab42e40164736f6c634300081c0033a6eef7e35abe7026729641147f7915573c7e97b47efa546f5f6e3230263bcb49",
        "linkReferences": {}
    },
    "methodIdentifiers": {
        "DEFAULT_ADMIN_ROLE()": "a217fddf",
        "ORACLE_ROLE()": "07e2cea5",
        "UsuariosInscritos(address)": "9fc3c274",
        "actualizarEstadisticas(uint256,uint256,uint256,uint256,uint256,uint256,uint256,bool,uint256,uint256,bool)": "c8532fd0",
        "actualizarPuntuacionesDeTodos()": "2c59d0ce",
        "calcularPuntuacionEquipo(address)": "446da54f",
        "cargarJugadoresDisponibles()": "4068dbf9",
        "distribuirPremio()": "aa0fa25a",
        "equipos(address)": "0acaeff0",
        "fantasyPlayerNFT()": "145f4825",
        "finalizarJornada()": "4c7ef287",
        "gameStatus()": "722fed7e",
        "getEquipo()": "7f1f73b4",
        "getEquiposInscritos()": "4ceebd56",
        "getEstadoActual()": "1f05d184",
        "getRoleAdmin(bytes32)": "248a9ca3",
        "grantRole(bytes32,address)": "2f2ff15d",
        "hasRole(bytes32,address)": "91d14854",
        "iniciarJornada()": "7e68e3ec",
        "jugadorElegido(uint256)": "d4225f6a",
        "jugadores(uint256)": "4aead46c",
        "owner()": "8da5cb5b",
        "pagarEntrada()": "141998dd",
        "renounceOwnership()": "715018a6",
        "renounceRole(bytes32,address)": "36568abe",
        "resetJornada()": "2726021d",
        "revokeRole(bytes32,address)": "d547741f",
        "seleccionarJugadores(string,uint256[5])": "48f65eaa",
        "setOracle(address)": "7adbf973",
        "supportsInterface(bytes4)": "01ffc9a7",
        "transferOwnership(address)": "f2fde38b",
        "withdraw()": "3ccfd60b"
    },
    "id": 42
}